:10000000130500009305000013060000930600008E
:10001000B7420000B7400000938040001301500039
:1000200023A022009301100023A030001301A000A0
:1000300023A02200375334121303836737230000B1
:100040001303533483A1000013022000EF03800048
:1000500073000000011122CE0010232604FE232489
:1000600004FE232604FE29A8032784FE8327C4FE5A
:10007000BA972324F4FE8327C4FE85072326F4FEC3
:100080000327C4FE93073006E3D0E7FE81473E8591
:060090007244056182804C
:00000001FF
